:020000040800F2
:1000000030090020C53A000815130008171300082E
:1000100000000000000000000000000000000000E0
:100020000000000000000000000000001F13000896
:100030000000000000000000231300081512000853
:10004000D73A0008D73A0008D73A0008D73A00084C
:10005000D73A0008D73A0008D73A0008D73A00083C
:100060000000000095120008B5120008D512000823
:10007000D73A000879120008D73A000800000000BB
:10008000D73A0008D73A00080000000031120008F3
:10009000D73A0008D73A0008D73A0008D73A0008FC
:1000A000D73A0008D73A0008D73A0008D73A0008EC
:1000B000D73A000800000000000000000000000027
:1000C000D73A000800000000D73A000800F002F814
:1000D00000F03EF80CA030C8083824182D18671E10
:1000E000A246AB4654465D46AC4201D100F030F822
:1000F0007E460F3EB6460FCC0126334200D0FB1A97
:100100003343A246AB4618475452000074520000D5
:10011000103A02D378C878C1FAD8520701D330C850
:1001200030C101D504680C60704700000023002432
:1001300000250026103A01D378C1FBD8520700D31E
:1001400030C100D50B6070471FB51FBD10B510BD85
:1001500004F0D6FC1146FFF7F7FF00F009F804F0B1
:10016000EEFC03B4FFF7F2FF03BC04F04DFD00000A
:1001700086B003F03BFDF04800686421B0FBF1F06D
:10018000401E010E0DD1ED49ED4A5060ED48036867
:100190000B40032189075918016000209060072057
:1001A000106000F05FFC002800D171E100F058FC05
:1001B00000F076FC00F0A4FCE34804210122029246
:1001C00001F016FE00F086FE00F0C4FD01F072FDA5
:1001D0000920C7062021384601F013FE40B1202433
:1001E00001F068FD3846214601F00BFE0028F7D1EA
:1001F0000A2001F083F8002005900197D44908688F
:10020000401C0860C00701D101F08CF8D148056896
:10021000E81729464140081A04F0E4FB04F0BEFA4E
:10022000059E3246CC4B04F095F93246CB4B03F099
:100230000BFF3246CA4B03F0D7FE03F01BFD04460A
:100240002846313063280BD30020C649085E42425D
:100250009542294600DC1146854200DC08464642AC
:10026000C1480168084631306328059810D3002042
:10027000BC4A105E434299420A4600DC1A4681425B
:1002800000DC104604F0AEFB0146204604F0C8FD39
:1002900004F05EFB04F0A6FB0146B44804F018FE2F
:1002A000B34C214604F0BCFDB24904F0A1FA21464A
:1002B00004F01CFD044604F04BFB05462046AF4904
:1002C00004F0D7FC044636B2AD48864200DCAC4EA2
:1002D000A80040F2E8318E4201DB40F2E836A64940
:1002E0000D58304604F07EFB0146ACB1284604F0C0
:1002F00097FD05469D4C214604F0BBFC00B92C46F9
:100300002046A04904F0B5FC00B99E4C204604F0FC
:100310001FFB3446064614E00846294604F068FAF6
:100320000546924C214604F0A4FC00B92C46204618
:10033000944904F09EFC00B9924C204604F008FB5E
:100340000446914D287881090298884300F0C4F949
:10035000049420B2039000F0C5F92A78900614D4D2
:10036000029802400821784C204601F041FD28788F
:100370008007C20F1021204601F03AFD287840077F
:10038000C20F2021204601F033FD28780007C20F5C
:1003900001216E4C204601F02BFD2878C006C20FCB
:1003A0000221204601F024FD284600254057002860
:1003B0006FD4C4B2754807683846754904F04CFCE0
:1003C00060B9A0063ED5082101225F4C204601F00D
:1003D0000FFD2021002720463A462CE038466D4983
:1003E00004F03AFC78B93846694904F01FFC50B96A
:1003F000A00627D508210127534C20463A4601F094
:10040000F7FC20211AE03846634904F025FC002857
:100410007AD138465F4904F009FC002874D1A0065F
:1004200010D508210027484C20463A4601F0E0FC50
:1004300020210122204601F0DBFC102120463A4613
:1004400001F0D6FC2021019F384601F0DAFC78BB90
:1004500030B2C0134640301A80B2332801D3284648
:1004600002E04E480068401C049A0399C9134A40B0
:10047000511A89B2332900D32846484908604849AF
:10048000884232D2052000F039FF01F013FCB5E6B6
:10049000FEE70024204600F01FF9204600F022F974
:1004A00004212948224601F0A3FC01F003FCFCE7EB
:1004B0002021384601F0A5FC40B1202401F0FAFBD0
:1004C0003846214601F09DFC0028F7D10024204643
:1004D00000F002F9204600F005F904211A482246EE
:1004E00001F086FC01F0E6FBFCE70024204600F06A
:1004F000F3F8204600F0F6F804211348224601F0F4
:1005000077FC01F0D7FBFCE70024204600F0E4F87C
:10051000204600F0E7F804210B48224601F068FC71
:100520001D49384604F0A5FB10B101F0C3FBFCE700
:1005300001F0C0FBFCE7C04600000020FFFFFF0009
:1005400010E000E020ED00E0000400480014004846
:10055000E4000020D80000200000E0BF00408F40F1
:100560000000F03F0A000020E000002000007AC4F4
:10057000000034430000FA44885000080000B442F0
:1005800018FCFFFF00007A440C000020040000204B
:1005900000000C42000004420000F841C4000020AA
:1005A000813801000024204600F096F8204600F033
:1005B00099F804480421224601F01AFC01F07AFB64
:1005C000FCE7C04600040048B0B505461448007872
:1005D000800600D4B0BD134C102D09D1082101258F
:1005E00020462A4601F004FC202120462A4611E03C
:1005F00028460838424242410821204601F0F8FBD3
:10060000203D6A426A412021204601F0F1FB102181
:1006100000222046B0BC08BC9E4601F0E9BBC046A3
:100620000C000020000400487047000090FBF1F22D
:100630004A43801A401890FBF1F24A43801A00B2F4
:100640007047C046401A00B2062190FBF1F24A43BF
:10065000801A801D90FBF1F24A43801A4000014944
:10066000085E70476050000870B54C1E0499052C58
:1006700014D8A50001A67519AF46C04600F00AB807
:1006800000F011B800F012B800F014B800F018B87B
:1006900000F01CB80024146018601AE000201060FC
:1006A0001860086070BD444214600BE0444214605E
:1006B000002202E00024146042421A60086070BD0B
:1006C0001060404218600020086070BD1060002279
:1006D0001A604042086070BD014908707047C0460A
:1006E00074000020F0B581B003F029FF0025154B00
:1006F0002A4603F02FFF0746134C00912A46234653
:1007000004F089FA2E4600B93E4600B9009C0F4B12
:10071000304621462A4604F07EFA074630462146F6
:100720002A460A4D2B4604F076FA00B92C4607B942
:100730003E463046214603F0ABFE0549088001B035
:10074000F0BDC0460000F23F009491C0009491407B
:1007500076000020F0B583B000249A48015F9A4AE1
:1007600091420DDC491C01800020A149085E9A4A93
:1007700052888018C20F80184008088003B0F0BD6E
:10078000924A158892486843810380B280084018D5
:1007900080B20009282822D88E48006803F0FEFFA6
:1007A000029001918C48008803F0D1FE00228B4B0F
:1007B00003F0D0FE8A4A8B4B03F0CCFE06460F4670
:1007C000894A8A4B0298019903F0C4FE32463B469F
:1007D00003F00AFC03F04EFA7C4A7E490860681C6C
:1007E00010808348005F7C494988081A03F0A7FEFF
:1007F000804A814B03F0AEFE03F03CFA0121C907A9
:1008000088437E4908607E4904F01BFA411E8841F6
:100810007C4909784A424A4102437B480078401E9D
:100820004142414111437948012902D102F08CF83B
:1008300001E002F083F80920C006022101F0E1FA8C
:10084000734D2870734844F2000101F0DAFA724ED9
:10085000307040F6C001C039704801F0D2FA7049DA
:1008600008708000297808183178490040186D49CF
:1008700008706D49095F6D4A13681D135B1B591899
:100880001160C0B26A4A105C6A4A1070090B6A4A69
:100890001180401E052815D809B2820001A39A18BC
:1008A0009746C04600F00AB800F010B800F012B841
:1008B00000F014B800F016B800F018B84842274607
:1008C0000E4616E027462646204612E04F420E46C8
:1008D00020460EE04F42264608460AE04E42274692
:1008E000084606E04E420F46204602E048420F46C8
:1008F0002646524CA042014600DC2146504A15468D
:100900000A35904240F6C00200DC4A1902213F48F5
:1009100002F08AF9A642304600DC204648498E4261
:1009200040F6C00200DC421901263848314602F088
:100930007BF9A742384600DC204641498F4240F609
:10094000C00200DC421900273048394602F06CF939
:10095000384804783B480578281B062190FBF1F2C3
:100960004A43801A801D90FBF1F24A43801A4000EE
:100970003549085E35490A68101A08603449086824
:10098000344A531C984201D2401C08600868012D6B
:100990000FD0012C0DD10F6004F02CF801462F4828
:1009A00003F026FF022D01D1F10748402A490860D3
:1009B00003E0904201D9284807602248047003B040
:1009C000F0BDC046D0000020E70300007A00002000
:1009D000295C0000040000207000002000C0983F47
:1009E000FCA9F1D24D62503F2B8716D9CEF7EF3FCD
:1009F000080000203F80C9999CC9C93F7C000020A5
:100A00000000704174000020E8000020002C01402C
:100A1000BD00002000080048BE000020000400487F
:100A2000BF000020BC00002076000020B80000209D
:100A300080500008D200002078000020A5FBFFFFB6
:100A40005B040000C800002060500008C0000020C7
:100A5000DC0000209F0F0000D4000020ECF9F844D7
:100A60007047C046B0B50C4801F006FC08B101F073
:100A70000FFC0A4D0221284601F024F90024012828
:100A800007D1284601F0FAF8012802D101F0BAF89E
:100A900001242046B0BDC0461D090000FF0F000024
:100AA000F0B581B040F2087001F0A8FA114C204670
:100AB00001F0CAFD104F11480125690500263E735B
:100AC00042C738602046083F01F075FE204639468F
:100AD00001F00AFE1320314601F0E4F920462946D0
:100AE00001F0C4FE204601B0F0BC02BC8E4601F00D
:100AF00053BEC04600200040F0000020A08C000043
:100B0000F0B585B08F4C204601F078FA601C01F0FA
:100B100075FAA01C01F072FA601D01F06FFA8A4F9D
:100B2000012500260824384629463246234601F08E
:100B300017F9384631462A46234601F032F9202477
:100B4000384629463246234601F00AF938463146EE
:100B50002A46234601F025F91024039438462946F5
:100B60003246234601F0FCF8384631462A462346F1
:100B700001F017F9754C2046294632462B4601F004
:100B8000EFF8204631462A462B46049501F009F934
:100B9000022702972046294632463B4601F0E0F8FC
:100BA000204631462A463B4601F0FBF80920C5069F
:100BB0002846314632463B4601F0D2F86448314679
:100BC000324644F2000301F0CBF85F48314632462A
:100BD00040F6000301F0C4F803242846019521469D
:100BE0003246039B01F0BCF8402728462146324696
:100BF0003B4601F0B5F82846214632463B4601F017
:100C0000AFF8514821463246049B01F0A9F84F4DF8
:100C10002846029F39463246039C234601F0A0F83D
:100C200028463946224601F0FCF8474D2846394609
:100C3000324648F2000301F093F82846394632461E
:100C400044F2000301F08CF828463946324642F25D
:100C5000000301F085F8019C20463946324640F2F7
:100C6000004301F07DF820463946324640F2002329
:100C700001F076F820463946324640F2001301F082
:100C80006FF828463146324648F2000301F089F8F1
:100C900028463146324644F2000301F082F82846E5
:100CA0003146324642F2000301F07BF820463146DD
:100CB000324640F2004301F074F820463146324695
:100CC00040F2002301F06DF820463146324640F2F2
:100CD000001301F066F82846394648F2000201F098
:100CE000A0F82846394644F2000201F09AF8284656
:100CF000394642F2000201F094F82046394640F2AB
:100D0000004201F08EF82046394640F2002201F000
:100D100088F82046394640F2001201F082F8042497
:100D20002846049F39463246234601F019F82846E2
:100D300031463A46234605B0049CA646F0BC01B0B5
:100D400001F02FB81105000000040048001400480D
:100D500000080048F0B583B0584801F04FF9584CEE
:100D6000204601F071FC574F5748012569050026C0
:100D70003E7342C738602046083F01F01CFD204604
:100D8000394601F0B1FC0227204639460297324627
:100D900001F07EFF204629460195324601F078FF9A
:100DA00020463146324601F073FF2046394632462E
:100DB00001F040FF20462946324601F03BFF204625
:100DC0003146324601F036FF70272046029D294603
:100DD0003A4601F0FBFE204601993A4601F0F6FE44
:100DE000204631463A4601F0F1FE20462946324679
:100DF00001F01AFF2046019D2946324601F014FFFA
:100E000020463146324601F00FFF304F40F20020BD
:100E100078813E810820F880BE80204602993A46BB
:100E200001F0C2FD204629463A4601F0BDFD2046AC
:100E300031463A4601F0B8FD25494E814E8040F6D4
:100E4000000008808E813C20888044F200000881E8
:100E5000CE80204601F057FD204601F0A2FC20463E
:100E600002992A4601F0CCFF204629462A4601F085
:100E7000C7FF204631462A4601F0C2FF042720461C
:100E800002993A4601F0E9FF204629463A4601F028
:100E9000E4FF204631463A4601F0DFFF0D2031469F
:100EA00001F000F82046294601F0E0FC204603B09E
:100EB000F0BC02BC8E4601F06FBCC0460B060000C1
:100EC000002C01401C010020CA0800000E01002077
:100ED00000010020F0B581B0334801F08FF840F2F6
:100EE000005001F08BF80625284601F013F909207F
:100EF0000124214600F0D6FF0026304600F006FD12
:100F00002A498E76022740F200130B83294843F2C8
:100F1000000209C12648086040F2004048608F6026
:100F2000CA603046083900F013FD304600F054FD29
:100F3000304600F071FD3046394600F041FE304643
:100F4000394600F08FFD304600F072FD20463946EC
:100F500000F0D8FA042130463A4600F0F3FA204671
:100F600029463A4600F0EEFA304600F0BDFA204637
:100F7000214600F06FFB07204104204600F08CFB67
:100F800000F04CFA00F078FC00F004FA00F016FAD9
:100F900000F026FA40F20010214601B0F0BC04BC7B
:100FA000964600F067BAC04609060000800000209F
:100FB000700000204C240140F0B585B0019009205C
:100FC000C6060225029501270497042430462946C7
:100FD0003A462346039400F0C3FE082300933046AC
:100FE00029463A4600F0BCFE002703253046394624
:100FF0002A46234600F0D5FE304639462A46009C54
:10100000234600F0CEFE3046049D2946039A00F0A8
:1010100008FF30462946224600F003FF2E4800F024
:10102000EDFF40F2005000F0E9FF2C4E30460199F0
:1010300002F018FA3046394602F040FA3046394696
:1010400002F049FA3046394602F052FA3046394643
:1010500002F0CEFA3046214602F061FA3046039C97
:10106000214602F064FA304602F04FFA0B20029D4E
:10107000294600F017FF204600F048FC184919489F
:101080008F7640F200120A833246243243F2000384
:1010900084C108604F60049F8F60CB602046083990
:1010A00000F056FC204600F097FC204600F0B4FC0F
:1010B0004021304602F06DFC2046294600F080FDBC
:1010C0002046394600F0CEFC204605B0F0BC02BCFC
:1010D0008E4600F0ADBCC046110700000044004041
:1010E0009C0000202D010020F0B585B001904448FF
:1010F0000227029701250495402439462A462346B3
:1011000000F02EFE80263E4839462A46334600F03F
:1011100027FE002703253A4839462A4603942346EA
:1011200000F03FFE364839462A46334600F039FE85
:10113000334805463946224600F073FE28463946B4
:10114000324600F06EFE2F4800F058FF40F200508B
:1011500000F054FF2C4D2846019902F083F92846EF
:10116000394602F0ABF92846394602F0B4F9284670
:10117000394602F0BDF92846394602F039FA08210D
:10118000284602F0CCF90421284602F0D0F928467E
:1011900002F0BBF90A20029C214600F083FE2046A3
:1011A00000F0B4FB19491A488F7640F200120A8306
:1011B0002A46243243F2000384C108604F60049E33
:1011C0008E60CB602046083900F0C2FB204600F05C
:1011D00003FC204600F020FC2846039902F0D9FBCE
:1011E0002046214600F0ECFC2046314600F03AFC57
:1011F000204605B0F0BC02BC8E4600F019BCC046CB
:10120000000400480E060000003801409C00002049
:101210002C01002002480168491C01607047C0464B
:10122000CC0000200148002101607047EC00002044
:1012300010B50D4801680D4A914208D30C4C207836
:1012400010B90020FFF74EFA0120207004E0084A90
:1012500000231370491C01600648012110BC04BC26
:10126000964601F015BBC046EC000020D1070000F7
:10127000E80000200020004010B50124204600F0C6
:1012800021FA0348214610BC04BC964601F000BB7D
:10129000002C014080B5FFF75DFA0020022100F02C
:1012A00067FC30B10020022180BC04BC964600F0EF
:1012B0007DBC80BD80B50220014600F059FC40B1E4
:1012C00000F058F80220014680BC04BC964600F0AD
:1012D0006DBC80BD80B50420022100F049FC30B116
:1012E0000420022180BC04BC964600F05FBC80BD97
:1012F000014800687047C046CC00002030B1044966
:101300000A6800BF0B689B1A8342FAD37047C04635
:10131000CC0000207047FEE7FEE7FEE7FEE77047DF
:10132000704770470F480168032091FBF0F164316A
:1013300040F2901291FBF2F35343CA1A1146C83996
:1013400001DAC821891A48430749884200DC084667
:101350000649884200DB084640F22C11401A044935
:1013600008607047CC00002044FDFFFF140500001A
:10137000D80000207047000010B5054C204600F052
:101380006DFE204610BC02BC8E4600F073BEC04607
:101390000903000004480168C90703D1016801225C
:1013A0000A4302607047C0460824014002480168B1
:1013B00001229143016070470824014007480168F9
:1013C00008220A43026001680907FCD4016804226C
:1013D0000A43026001684907FCD4704708240140B1
:1013E0000348016840F200120A4302607047C04699
:1013F000082401400348016840F200129143016053
:101400007047C046082401400120C00502490A680F
:1014100002430A607047C046082401400120C0050D
:1014200002490A6882430A607047C04608240140A6
:1014300010B50F4A136841F60004A3431360022855
:101440000FD0012812D110684EF2000398431060AB
:101450004803C01880B211680143116040F60000D3
:1014600001E041F2000011680143116010BDC04667
:101470000424014010B540F2001304461C40194AF0
:1014800029B154B941050DD4800712D410BDACB9AF
:1014900041051AD48007F9D51EE01168194311607F
:1014A0004105F1D540F2004113680B4313608007FA
:1014B000ECD5516802200843506010BD116840F21D
:1014C0000013994311604105E4D5116840F20043CF
:1014D000994311608007D9D5506802218843506034
:1014E00010BDC04604240140411E8841C002044989
:1014F0000A6840F600039A43101808607047C04617
:101500000824014002280ED0012818D10F20000520
:101510000B4A1368834313600905091801401068DA
:1015200008431060704703200005054AD3688343D1
:10153000D360090509180140D0680843D06070479E
:101540002C240140B0B5214B05280AD8052444437A
:101550000846A0401F25A5409C6AAC4304439C62FA
:101560001AE00B280BD8052444431E3C0846A04033
:101570001F25A5405C6AAC4304435C620CE00F2865
:101580000AD8052444433C3C0846A0401F25A540FA
:101590001C6AAC4304431C62092909D80320484350
:1015A0008240072181405868884310435860B0BD8D
:1015B000122909D8032048431E3882400721814060
:1015C0001868884310431860B0BDC0460C24014021
:1015D000B0B5164B1C68A402A40F201A0424E443DF
:1015E00044430F340846A0401F25A5401C68AC4367
:1015F00004431C6009290AD803204843824007217C
:101600008140283B1868884310431860B0BD1229F8
:101610000AD8032048431E388240072181402C3BD2
:101620001868884310431860B0BDC0463824014094
:10163000064A536A9B029B0FC01AC01C032803D89A
:10164000034B1940800081507047C046142401406C
:10165000FF0F000010B5012304461C400D4A59B18C
:101660001CB1190513680B431360800710D511686E
:1016700048F2000008430AE01CB1190513688B43C7
:101680001360800704D5106848F200018843106099
:1016900010BDC04608240140012803D0022809D10A
:1016A000064800E00448064A1368034013601068C7
:1016B000084310607047C046FFFFF1FFFF8FFFFF38
:1016C00008240140C107094902D1800707D47047A7
:1016D000012292050B6813430B608007F7D50120A8
:1016E00040050A6802430A607047C046082401406A
:1016F0000148006880B270474C24014003280FD88D
:10170000810001A251188F4600F006B800F00BB816
:1017100000F00DB800F00FB80948006880B27047BB
:10172000002080B270470648406880B27047044885
:10173000806880B270470248C06880B27047C04677
:101740003C240140024909680840411E8841704715
:101750000024014002490A6882430A607047C0467B
:1017600000240140012805D0042805D002280FD10B
:10177000202102E0402100E08021064A1368034056
:10178000581E834150680840411E884118407047E8
:10179000002070470024014002490A6882430A6021
:1017A0007047C04600240140C1070C4904D182079C
:1017B00008D440070CD470470A68402313430B60D9
:1017C0008207F6D50A68202313430B604007F2D541
:1017D0000868802202430A607047C0460424014022
:1017E000C1070C4904D1820708D440070CD47047C4
:1017F0000A6840239A430A608207F6D50A682023C4
:101800009A430A604007F2D5086880229043086036
:101810007047C0460424014006490A68064B13403D
:101820000B600A6802430A600868044A02430A60BF
:101830007047C04604240140E0FD3FFF0002C000A5
:1018400008490A68084B13400B60401EC2B2022AC6
:1018500006D840B2800005A210580A6802430A6008
:101860007047C04604240140FFFD3FFF0000800098
:10187000000040000000C00002480168024A0A401F
:101880000260704704240140E0FD3FFF034A10401E
:10189000034B5860114019607047C046FF0F0000AD
:1018A0002424014003210906034A13688B43136073
:1018B000116801431160704704240140B0B5401E17
:1018C000434243415B0207480468074D2C40E3183C
:1018D00003602B1D04681C400460114302680A4326
:1018E0000260B0BD80240140FFFDFFFF0248016897
:1018F00001220A43026070478024014002480168C7
:1019000001229143016070478024014010B51422E8
:1019100042430949521853680124A34353600023EA
:1019200053609360D360136180000F228240086887
:101930001043086010BDC0460400024000218176BB
:101940000183016041608160C16001614161704754
:10195000B0B5142242431A4813580124A34313502C
:1019600013180C689C608C68DC600C8A5C601358EF
:1019700043F60074A3434C681C43CB6823434C6973
:101980001C4314500B7E5B1E5C425C41A301145847
:101990004025AC43E31813504B7E5B1E5C425C4118
:1019A000E30114588025AC43E3181350897E4B1E85
:1019B0009941090113581024A34359181150B0BD7F
:1019C000080002401421414302480A5801239A4367
:1019D0000A507047080002401421414302480A5847
:1019E000202313430B507047080002401421414349
:1019F00002480A5820239A430A50704708000240C0
:101A00001421414303480A5844F2000313430B5086
:101A10007047C046080002401421414303480A5859
:101A200044F200039A430A507047C046080002403F
:101A30001421414302480A58012313430B507047B5
:101A40000800024014224243014811507047C0462A
:101A50001000024014224243014811507047C04612
:101A6000140002401422424388B20149505070478A
:101A70000C00024014214143014808587047C046F9
:101A80000C00024010B5142242430448135843F29C
:101A90000004A3430B43135010BDC046080002408E
:101AA00010B5142242430448135840F60044A3439F
:101AB0000B43135010BDC0460800024010B514225D
:101AC00042430448135840F20034A3430B431350DD
:101AD00010BDC046080002401421414302480A5884
:101AE000802313430B5070470800024014214143E8
:101AF00002480A5880239A430A507047080002405F
:101B00001421414302480A58402313430B507047A5
:101B1000080002401421414302480A5840239A43D6
:101B20000A5070470800024010B54A1E9141090151
:101B300014224243034813581024A3435918115048
:101B400010BDC04608000240800081400248006885
:101B50000840411E884170470000024080008140DB
:101B6000024802680A4302607047C046040002400F
:101B700010B50022082915D801238B4040F2141417
:101B800023420FD082000C469440074A136823403A
:101B90005C1EA34114244443A01882680A40501ECE
:101BA00082411A40104610BD000002408000814072
:101BB000024802680A4302607047C04604000240BF
:101BC00014224243024813580B4313507047C04637
:101BD0000800024014224243024813588B4313501A
:101BE0007047C04608000240014802490160704742
:101BF0000030004055550000014800210160704749
:101C00000030004001480249016070470030004048
:101C1000CCCC000010B50146074A08481060084BBC
:101C20000120D468044013B15B1C002CF9D10CB125
:101C3000002010BD516010BD00300040555500001F
:101C40000200F0FF10B50949094A0A60094A022357
:101C5000CC681C4012B1521C002CF9D10CB10020F0
:101C600010BD054A10408860012010BD00300040C2
:101C7000555500000200F0FFFF0F000010B50949A4
:101C8000094A0A60094A0423CC681C4012B1521C5C
:101C9000002CF9D10CB1002010BD054A104008619C
:101CA000012010BD00300040555500000200F0FF3B
:101CB000FF0F0000014802490160704700300040FA
:101CC000AAAA000070B50F4B0F4A1A600F4D0124ED
:101CD0002A46DE68264012B1521C002EF9D100229D
:101CE00076B959600221DE680E4015B16D1C002ED8
:101CF000F9D12EB906490840986006481860224676
:101D0000104670BD00300040555500000200F0FF45
:101D1000FF0F0000AAAA0000024909680840411EFE
:101D2000884170470C30004010B51721C906401893
:101D30000A21C841052804D8C1B22722CA40D107C8
:101D400000D110BD400005490C5A204600F086F92C
:101D5000204610BC02BC8E4600F08CB96C500008C6
:101D6000F0B582B0019305680090C0680026374640
:101D700003E0B61C7F1C102F0ED0019BFB40DB073D
:101D8000F7D01346B3400324B440A04318430B4696
:101D9000B340A5431D43ECE700990D60C86002B055
:101DA000F0BDF0B581B0012902D14168194301E0CD
:101DB00041689943416000908168002403202646D1
:101DC00003E0A41C761C102E0AD01F46F740FF0724
:101DD000F7D01746A7400546A540A9433943F0E789
:101DE0000098816001B0F0BD8161704781627047E9
:101DF00012B11822115070472822115070474161CA
:101E0000704700690840411E88417047006980B2F0
:101E1000704740690840411E88417047406980B260
:101E20007047F0B582B00191016A0090446A0025C4
:101E30002E4603E02D1D761C082E0AD01746F740CB
:101E4000FF07F7D0019FAF400F23AB4099433943C1
:101E5000F0E70825002603E0361D6D1C102D0AD082
:101E60001346EB40DB07F7D0019BB3400F27B74089
:101E7000BC431C43F0E700980162446202B0F0BD2D
:101E8000012212040A43C261C161C261C169C06911
:101E90007047C1627047C0460149C1627047C04681
:101EA000FFFF000010B540B2002805D4032203460E
:101EB00093430F4A9A1803E00C2202400B4BD218AE
:101EC0008307DB0E8907090E9940FF249C401368A5
:101ED000A3430B431360002807D41F2101400122B4
:101EE0008A40400980000349425010BD14ED00E0D3
:101EF00000E400E000E100E040B200280BD41F2124
:101F0000014001228A404009800003494250BFF34A
:101F10004F8FBFF36F8F704780E100E0BFF34F8FAB
:101F2000034804490160BFF34F8F00BFFDE7C0467F
:101F30000CED00E00400FA05024A0A4002430248A0
:101F40000260704780FFFF1F08ED00E002490A6849
:101F500002430A607047C04610ED00E002490A687B
:101F600082430A607047C04610ED00E0001F414206
:101F70004141880003490A6804239A431018086005
:101F80007047C04610E000E0B0B518480246303A4D
:101F9000136801210B43136013689B07FCD50346AC
:101FA0002C3B1C68124D25401D601C68114D2540BE
:101FB0001D601368104C1C401460021F13680F242E
:101FC000A3431360026840F203139A4302600A04B9
:101FD000036893430360CA0703689343036042683E
:101FE0008A434260283800210160B0BD30100240B1
:101FF0000C00FF08FFFFC277FFFFF2FE1F21014028
:1020000001228A40800902494358134343507047D4
:10201000001002401F21014001228A40800902492C
:102020004358934343507047001002401F21014022
:1020300001228A40800902494358134343507047A4
:10204000001002401F21014001228A4080090249FC
:102050004358934343507047001002401F210140F2
:1020600001228A4080090249435813434350704774
:10207000001002401F21014001228A4080090249CC
:10208000435893434350704700100240012000041E
:1020900002490A6802430A607047C04620100240A5
:1020A0000120000402490A6882430A607047C04662
:1020B0002010024003490A6803239A4302430A603E
:1020C0007047C04604100240024801680C200840D6
:1020D0007047C0460410024003490A68F0239A433F
:1020E00002430A607047C0460410024003490A6870
:1020F00040F200739A4302430A60704704100240A2
:1021000003490A6843F600039A4302430A60704792
:102110000410024010B531490A462C3A13684CF2BB
:102120000004A34313600B682D4C1C400C6009286D
:1021300052D8830001A4E3189F46C04600F012B8AD
:1021400000F015B800F01DB800F01EB800F01FB880
:1021500000F021B800F023B800F025B800F032B844
:1021600000F025B8012000040A68824303E0012042
:1021700000040A6802430A60086840F200129043B3
:1021800029E01068106022E01068106014E0106808
:1021900044F2000319E0106844F200030AE01068FA
:1021A00048F2000311E0106848F2000302E01068F2
:1021B0004CF20003034313600120C0070A68024386
:1021C0000A6004E010684CF20003034313600A68DD
:1021D00040F200101043086010BDC04630100240AD
:1021E000FFFEFE7F0843F7210906034A13688B436D
:1021F000034313607047C0460410024010B5054AFF
:102200001368054C1C4014600843116801431160B9
:1022100010BDC04604100240FFFFC2F704490A681F
:1022200003239A430A600A6802430A607047C04663
:102230003010024004490A6840F200339A430A60B1
:102240000A6802430A6070472010024003490A6886
:102250000F239A4302430A607047C0462C10024085
:1022600004490A6818239A430A600A6802430A600C
:102270007047C046201002401F2101408009034AD8
:102280008258CA40012010407047C04600100240EA
:102290000120000602490A6802430A607047C046EE
:1022A000241002401F2101408009034A8258CA407D
:1022B000012010407047C046001002401F2101401D
:1022C00001228A4080090249435813434350704712
:1022D000001002401F21014001228A40800902496A
:1022E0004358134343507047001002401F210140E0
:1022F00001228A4080090249435893434350704762
:102300000010024010B501460020344A914213DC0F
:1023100059B3102936D018295FD1314931480022EC
:10232000491E134653410468A40101D4002BF7D180
:1023300000688001C00F10BD40F6000291422FD00E
:1023400040F6001291423AD040F60052914244D1F8
:10235000234924480022491E13465341446BA407D5
:1023600001D4002BF7D1406B26E01F491D48002205
:10237000491E134653410468A40701D4002BF7D12A
:10238000006819E017480021521E0B464B410468B3
:10239000A40301D4002BF7D100688003C00F10BD47
:1023A000124910480022491E13465341046AA407EB
:1023B00001D4002BF7D1006A8007C00F10BD084977
:1023C00008480022491E13465341446AA40701D419
:1023D000002BF7D1406A8007C00F10BDFF07000037
:1023E000FEFF0F0000100240FF040000FEFFFF038D
:1023F0001F21014001228A408009024943581343AA
:1024000043507047001002401F21014001228A40C2
:1024100080090249435893434350704700100240DB
:1024200010B540F6000188420CD0102813D10A489C
:1024300001680122130404689C43046092040A4367
:10244000026010BD0448016A026A01239A430262D5
:1024500004220A43026210BD0010024010B540F68B
:10246000000188420CD0102813D10A4801680122CB
:10247000130404689C43046092049143016010BDFE
:102480000448016A026A01239A43026204229143CA
:10249000016210BD001002400120C00402490A6818
:1024A00002430A607047C046001002400120C00489
:1024B00002490A6882430A607047C0460010024021
:1024C00003490A68F8239A43C00010430860704724
:1024D0000010024003490A68F8239A43C0001043E1
:1024E0000860704734100240044801680021016010
:1024F0000168034A0A4302607047C0460011024067
:102500004D3C2B1A04490A6803239A430A600A685F
:1025100002430A607047C04634110240F0B581B0F2
:102520003F4A11680C240C403E4B082C1C4618D125
:1025300011688902090F0F2901D08C1C00E01024BA
:1025400015682D0101D511310C461168C90301D45C
:10255000354905E0916A0F250D40691CB3FBF1F187
:102560004C4315681368116805281FD800932D0681
:102570002D0F2EA77F5D2546FD408904490F2F4F63
:102580007B5C2946D940830001A6F3189F46C046CC
:1025900000F00AB800F00CB800F00CB800F03DB83C
:1025A00000F00FB800F015B8214636E0002134E005
:1025B000294632E000984005400F385CC540294666
:1025C0002BE0D06AC0051AD4D06AC00320D51D49BB
:1025D00023E0D06A800720D0D16A0320014001297E
:1025E00021461AD0D36A034048F20001022B14D0CE
:1025F000D16A014003290B490FD000210DE010687A
:102600000004800FD26A002A04D4B1FBF0F104E088
:102610000B4902E0401CB5FBF0F1084601B0F0BDEB
:102620000410024000127A0000093D000000000082
:1026300000000000010203040607080978500008A2
:10264000809FD500003FAB0110B5184C1849884257
:102650000ADD1849884212DC194988421DD01949FF
:10266000884218D1641D18E0174988420FD01749D5
:10267000884211D0164988420DD1FD340DE00E4933
:10268000884206D00D49884205D1E41D05E0F634A4
:1026900003E0A41D01E010BDF9342046FFF7DEFC85
:1026A000204610BC02BC8E46FFF7E4BC0B030000C2
:1026B000FF2B0140FF43014000440140004801401E
:1026C000002C014000400140000400400010004088
:1026D00000200040034900220273026042608160D2
:1026E0007047C046FFFF000010B50A888262224A88
:1026F000904202D0214B98420BD103687024A3432F
:1027000003604B8804681C4304608B8804681C4386
:1027100004608B68C3621A4B984208DC174B9842DE
:102720000ED01B4B98420BD0904209D01EE0154AA8
:10273000904205D0144A904202D0144A904215D1DA
:10274000026840F200339A430260CA880368134368
:102750000360104A82180A23DA41072A06D80123A7
:102760009340E122134201D0097B016341690122B8
:102770000A43426110BDC046002C014000040040E5
:10278000FF3F01400040014000480140004401403B
:102790000020004000D4FEBF016801220A4302600D
:1027A00070470168012291430160704701688022EF
:1027B0000A430260704701688022914301607047BC
:1027C00001680222914301607047016802220A43B6
:1027D00002607047026860239A43026002680A43FD
:1027E00002607047016810229143016070470168E0
:1027F00010220A43026070478162012A03D14169B5
:1028000001220A434261704701637047C162704709
:1028100041627047406A7047806A80B2704731B148
:10282000082908D1016808220A430260704701683C
:10283000082291430160704731B1042908D1016831
:1028400004220A4302607047016804229143016038
:10285000704731B1012908D1816808220A4382609A
:10286000704781680822914381607047C2680A43BB
:10287000C2607047C2688A43C2607047C2680A403B
:10288000531E9A4100690840411E8841104070471C
:1028900002698A430261704700690840411E88410D
:1028A000704702698A4302617047C2680A43C26086
:1028B0007047C2688A43C260704731B1082908D1A5
:1028C000416808220A4342607047416808229143E8
:1028D0004160704710B5836C034C1C408464114305
:1028E000826C0A43826410BDE0E0FFFF42690A4344
:1028F000426170470021818141810181C1808180D5
:102900004180018070470A884B8813438A881A43A4
:10291000CB8813430A891A434B8913438989194386
:1029200041647047416C41F200020A4342647047BF
:10293000416C41F20002914341647047416C44F2A2
:1029400000020A4342647047416C44F20002914322
:1029500041647047491E4A424A41D103426C48F2E1
:1029600000039A43511841647047491E4A424A4144
:10297000416801239943891841607047042905D0B3
:1029800041B9416804229143416070474168042283
:102990000A4342607047002141810181C1808180EA
:1029A000418001807047C04610B5032900D902E17B
:1029B0008B0001A4E3189F4600F006B800F08AB827
:1029C00000F044B800F0C7B8036A01218B430362EA
:1029D00083690324A34383611388046A1C4304624C
:1029E000036A0224A34303629388046A1C430462BB
:1029F000754BC3180A24E341072B00D9DBE099404B
:102A0000E123194200D1D6E0016A0423994301620F
:102A10005188036A0B430362016A082399430162E8
:102A2000D188036A0B430362416840F20013994363
:102A30004160118943680B434360416840F20023C1
:102A4000994341605289011D4068B2E0016A40F239
:102A50000013994301620321C943C3690B40C36159
:102A600011880902036A0B430362016A40F20023E2
:102A70009943016291880902036A0B4303624E493C
:102A80000B1F984200D096E0036A40F20044A34333
:102A9000036253881B02046A1C430462036A40F603
:102AA0000004A3430362D3881B02046A1C4304622C
:102AB000086841F2000398430860108900010B6820
:102AC00003430B60086842F2000398430860508992
:102AD00000016DE0016A102399430162816940F2AF
:102AE00000339943816111880901036A0B43036232
:102AF000016A20239943016291880901036A0B430B
:102B000003622E4988424BD02D49884253D1016A35
:102B100040239943016251880901036A0B43036210
:102B2000016A802399430162D1880901036A0B433A
:102B300003622149086840F2004398430860108905
:102B400080000B6803430B60086840F6000398435D
:102B5000086050892BE0016A41F200039943016249
:102B6000C16940F200339943C16111880903036AC6
:102B70000B430362016A42F20003994301629188A8
:102B80000903036A0B4303620B490B1F984212D1DE
:102B9000086844F20003984308601089800107E048
:102BA0000849086840F20043984308601089800093
:102BB0000A6802430A6010BD042C01400040014035
:102BC000002C01400440014000D4FEBF10B5032991
:102BD00029D88B0001A4E3189F46C04600F006B830
:102BE00000F00AB800F010B800F013B88169702343
:102BF00099438161183013E0816947F200039943DA
:102C00008161120218300BE0C16970239943C161E0
:102C100005E0C16947F200039943C16112021C300B
:102C200001681143016010BD032902D8890008180A
:102C30004263704710B5032929D88B0001A4E3181B
:102C40009F46C04600F006B800F00AB800F010B881
:102C500000F013B88169082399438161183013E0AB
:102C6000816940F6000399438161120218300BE03C
:102C7000C16908239943C16105E0C16940F60003B9
:102C80009943C16112021C3001681143016010BDFB
:102C900010B5032929D88B0001A4E3189F46C0462C
:102CA00000F006B800F00AB800F010B800F013B851
:102CB0008169042399438161183013E0816940F2EE
:102CC000004399438161120218300BE0C16904236B
:102CD0009943C16105E0C16940F200439943C16174
:102CE00012021C3001681143016010BD10B50329A8
:102CF00029D88B0001A4E3189F46C04600F006B80F
:102D000000F00AB800F010B800F013B88169802311
:102D100099438161183013E0816948F200039943B7
:102D20008161120218300BE0C16980239943C161AF
:102D300005E0C16948F200039943C16112021C30E9
:102D400001681143016010BD10B5032928D88B001C
:102D500001A4E3189F46C04600F006B800F009B889
:102D600000F00DB800F012B8016A02239943016225
:102D700012E0016A20239943016212010CE0016A0A
:102D800040F2002399430162120205E0016A42F217
:102D9000000399430162120320300168114301606E
:102DA00010BDC04610B5032928D88B0001A4E31834
:102DB0009F46C04600F006B800F009B800F00DB814
:102DC00000F012B8016A08239943016212E0016A17
:102DD00080239943016212010CE0016A40F600036E
:102DE00099430162120205E0016A48F20003994327
:102DF00001621203203001681143016010BDC0461A
:102E000010B5032928D88B0001A4E3189F46C046BB
:102E100000F006B800F009B800F00DB800F012B8E4
:102E2000016A01239943016212E0016A1023994368
:102E3000016212010CE0016A40F200139943016241
:102E4000120205E0016A41F2000399430162120394
:102E5000203001681143016010BD022907D001290B
:102E60000CD0A1B9016A0423994301620BE0016A05
:102E700040F2004399430162120204E0016A4023D8
:102E800099430162120120300168114301607047CB
:102E90000021C18081800122428001807047C046AC
:102EA000F0B583B0032900D995E08B0001A4E318A5
:102EB0009F46C04600F006B800F020B800F039B8D0
:102EC00000F057B8036A01240294A3430362036A23
:102ED0000A24A34303621388046A1C4304628369BF
:102EE0000324A343836157880446183405462035DC
:102EF000F023DB430193866904235DE0036A102419
:102F00000294A3430362036AA024A34303621388C9
:102F10001B01046A1C430462836940F20034A3432A
:102F20008361044618340546203553881E0287699C
:102F30003DE0036AF024E4430194103C1C40046229
:102F4000036A40F60024A343036213881B02046A49
:102F50001C430462C3690324A343C3615788044626
:102F60001C3405462035C66940F200130293042341
:102F700022E0036A41F2000541F200040294AB43EF
:102F80000362036A4AF20004A343036213881B032B
:102F9000046A1C430462C36940F20034A343C36162
:102FA00004461C340546203553881E02C7690C238D
:102FB0000093204B0193009B374327602668019FB5
:102FC0003E402660D6889E402368334323602B68AA
:102FD000029C23432B60032929D892888B0001A4EB
:102FE000E3189F4600F006B800F00AB800F010B8E9
:102FF00000F013B881690C2399438161183013E004
:10300000816940F6004399438161120218300BE058
:10301000C1690C239943C16105E0C16940F60043D1
:103020009943C16112021C3001681143016003B071
:10303000F0BDC046FF0FFFFF10B5032929D88B0054
:1030400001A4E3189F46C04600F006B800F00AB895
:1030500000F010B800F013B881690C239943816126
:10306000183013E0816940F60043994381611202F0
:1030700018300BE0C1690C239943C16105E0C169B7
:1030800040F600439943C16112021C3001681143AC
:10309000016010BD032903D889000818406B7047F0
:1030A00000207047F0B581B05488012C01D0012375
:1030B00000E00223009317887B427B415D00036A96
:1030C00000294BD010218B430362036AA026B3432F
:1030D00003623B01066A1E4306628369494E334020
:1030E0008361230284691C4384618369434C2340C8
:1030F0008361D488230386691E438661036A0B4378
:10310000036281693E4B1940816191880A0283699B
:1031100013438361036A012293430362036A0A260D
:10312000B3430362036A2B43036283690325AB4302
:1031300083618369009D2B4383618369F025AB43E1
:103140008361230184691C438461036A134303621E
:1031500082690C239A43826118304AE00126B34306
:103160000362016A0A2399430162016A39430162D9
:103170008169032399438161816921438161816967
:10318000F02399438161D1880B0184691C438461D8
:10319000036A3343036283690C24A34383619288E7
:1031A000836913438361036A1024A3430362036AA0
:1031B000A026B34303622B01056A1D4305628369A0
:1031C000104D2B408361009B1B0285691D43856167
:1031D00083690A4D2B408361090383690B43836133
:1031E000016A214301628169054B194081611830F0
:1031F000110202680A43026001B0F0BDFF0FFFFF39
:10320000FFF3FFFFFFFCFFFF31B1802908D14168C8
:1032100080220A43426070474168802291434160A6
:103220007047826870239A43826082680A43826092
:103230007047426870239A43426042680A43426082
:103240007047826807239A43826082680A438260DB
:10325000704731B1802908D1816880220A43826099
:10326000704781688022914381607047B0B584685F
:103270004BF60075AC438460114382680A43826058
:10328000190282680A438260B0BDC046B0B5846846
:103290000725AC43846084680C43846081690B4CCF
:1032A0000C408461816940F201140C438461016A1D
:1032B0000A24A1430162016AA024A1430162190109
:1032C0001143026A0A430262B0BDC046FCFCFFFF24
:1032D00081680722914381607047826870239A4316
:1032E000826082680A43826081680722914381601C
:1032F000816811438160704770B5056A60291BD1F0
:103300001024A5430562056AA026B5430562120193
:10331000056A15430562826940F20035AA4382615D
:10332000826940F200151543856182694FF20005FC
:10333000AA4382611B0214E00124A5430562056AC9
:103340000A26B5430562056A1543056282690325AD
:10335000AA4382618269224382618269F025AA437D
:10336000826182691A438261026A22430262826830
:1033700070239A43826082680A43826081680722D0
:103380009143816081681143816070BDB0B58468EC
:103390004BF60075AC438460114382680A43826037
:1033A000190282680A4382608168772291438160B2
:1033B000816811438160B0BDB0B584684BF600757B
:1033C000AC438460114382680A43826019028268B8
:1033D0000A438260816844F200020A438260B0BD01
:1033E000816844F200029143816070470165704733
:1033F00039B101290AD1FC21425802231343435019
:103400007047FC21425802239A434250704739B119
:1034100001290AD1FC21425801231343435070472C
:10342000FC21425801239A434250704710B50A4983
:10343000884204D0094988420BD1094C00E0054C70
:103440002046FEF70BFE204610BC02BC8E46FEF75F
:1034500011BE10BD0E0300000038014000440040C2
:1034600011040000B0B50D4604461148844204D052
:103470001048844205D1022000E00520FFF74EF8F5
:1034800000E000202168090406D469084018B0FB58
:10349000F5F080B2E060B0BD690840004018B0FBB4
:1034A000F5F0054901400007400F4018E060B0BD4D
:1034B0000038014000440040F0FF00000268012392
:1034C0009A430260026840F200639A430260026815
:1034D0000A4302607047026801239A43026002684F
:1034E00041F200039A43026002680A430260704797
:1034F000026801239A430260426843F200039A4340
:10350000426042680A4342607047016801220A43F0
:1035100002607047016801229143016070470268B0
:1035200008239A43026002680A43026070470268F7
:1035300004239A43026002680A43026070470268EB
:1035400001239A430260DA044368934343601140C5
:1035500042680A434260704710B5036801229343F2
:10356000036007292FD88B0001A4E3189F46C046AB
:1035700000F00EB800F00EB800F00EB800F00EB873
:1035800000F00EB800F00FB800F012B800F016B856
:10359000910406E0910407E0510402E0510403E0C5
:1035A0001104426807E0110442688A43426010BD7A
:1035B000416848F200020A43426010BD416848F287
:1035C00000029143416010BD0168012291430160F6
:1035D000816841F2000291438160704701680122D5
:1035E00091430160816841F200020A4382607047A2
:1035F000026801239A430260026848F200039A437A
:10360000026002680A4302607047026801239A431D
:103610000260826840F600039A43826082680A432F
:10362000826070470121C90542680A4342607047C1
:103630000121C90542688A4342607047FF22120691
:1036400043691340436142690A4342617047C0467F
:10365000014A0A4082627047FF010000416A014846
:1036600008407047FF0100000121090542680A4334
:10367000426070470121090542688A4342607047F1
:103680000322520543689343436042680A43426001
:103690007047026801239A430260FF2212064368C2
:1036A00093434360090642680A43426070470268D8
:1036B00001239A430260426810239A4342601940F2
:1036C00042680A4342607047016842F200020A43BE
:1036D00002607047016842F2000291430160704746
:1036E000026801239A430260026840F600039A438D
:1036F000026002680A430260704701680122914338
:103700000160416844F200020A4342607047016868
:10371000012291430160416844F2000291434160FB
:103720007047026801239A430260426820239A434B
:103730004260194042680A434260704701680122B2
:1037400091430160816808220A43826070470168E2
:103750000122914301608168082291438160704792
:103760000168012291430160416840F600020A436A
:10377000426070470168012291430160416840F650
:103780000002914341607047B0B504680125AC4325
:103790000460446840F20075AC43446040F2001499
:1037A0000C4041682143416040F2002111404268D1
:1037B0000A43426040F20041194042680A434260B5
:1037C000B0BD026801239A43026002694FF600739C
:1037D0009A430261090289B202690A430261704791
:1037E0000168012291430160816820220A438260BE
:1037F0007047016801229143016081682022914352
:103800008160704701680122914301608168102244
:103810000A43826070470168012291430160816818
:103820001022914381607047D021425801231343F5
:1038300043507047D021425801239A434250704769
:10384000026801239A43026007225204836893436B
:1038500083604907090B82680A4382607047FF2230
:103860001206436993434361090642690A43426170
:1038700070470168012291430160816802220A4376
:1038800082607047016801229143016081680222D1
:10389000914381607047026801239A430260026984
:1038A000FF239A43026102690A430261704702687A
:1038B00001239A430260826804239A43826019407C
:1038C00082680A4382607047026801239A4302605B
:1038D000826840F200139A43826082680A438260E1
:1038E0007047026801239A430260826840F2002315
:1038F0009A43826082680A438260704710B5C02292
:1039000083580124A3438350214083580B438350A1
:1039100010BD0168012291430160816844F20002F8
:103920000A43826070470168012291430160816807
:1039300044F20002914381607047026801239A4378
:1039400002601F225205036893430360C906890978
:1039500002680A4302607047026801239A430260CA
:103960001F221204036893430360C906C90A026850
:103970000A4302607047026801239A43026082682A
:1039800048F200039A438260194082680A438260C9
:103990007047826840239A43826082680A4382604B
:1039A0007047826880239A43826082680A438260FB
:1039B00070470168012291430160816842F2000270
:1039C0000A43826070470168012291430160816867
:1039D00042F20002914381607047016802220A436B
:1039E00002607047016802229143016070470268DB
:1039F00001239A4302600322120583689343836084
:103A0000114082680A4382607047D021425840F2D8
:103A10000013134343507047D021425840F2001323
:103A20009A4342507047D02140584004400F70479D
:103A30001F220A4089090958D140012008407047D7
:103A40001F220A4001219140026A0A430262704724
:103A50001F220A400123934089090A581A430A5039
:103A600070471F220A400123934089090A589A434C
:103A70000A50704782690A43826170471F220A40D8
:103A80000B049B0D1B58D3408A0D1258C802C00E60
:103A9000C2401A40012010407047C046084A914277
:103AA00006D1D021425848F200039A434250704751
:103AB000C902C90E01228A40016A1143016270479E
:103AC00009340F340748804707480047FEE7FEE700
:103AD000FEE7FEE7FEE7FEE704480549054A064B18
:103AE00070470000FD3A0008CD00000830010020BA
:103AF000300900203005002030050020F0B43348A4
:103B0000021F136801210B43136013689B07FCD548
:103B100003682F4C1C40046003682E4C1C4004605A
:103B200013682D4C1C401460836A0F24A3438362E6
:103B3000C36A40F20314A343C3620B04C46A9C43E8
:103B4000C462CB07C46A9C43C462036B8B430363A8
:103B50000023436014680C431460204C641E1D460F
:103B60005D411668B60701D4002DF7D113689B0795
:103B700000D4FEE71A4C256802231D430526B543F1
:103B800025600468046004680460046804600468D4
:103B9000144D254005600468134D254305600C064F
:103BA0001568254315601468A401FCD50268032438
:103BB000A243026002681A43026002681207FCD541
:103BC000C8060021F0BCFEF7B7B9C0460410024099
:103BD0000C00FF08FFFFC277FFFFF2FEFF040000AA
:103BE00000200240FFFFC2F70000040810B517488C
:103BF00001680C220A401649082A06D1026892027E
:103C0000130F0F2B03D09A1C02E00A4612E0102279
:103C10000468240101D511331A460368DB0302D47A
:103C20000C494A4306E0836A0F241C40631CB1FB25
:103C3000F3F14A4308490A6000680006000F07A232
:103C4000105C0A68C2400A6010BDC0460410024001
:103C500000127A0000093D00000000200000000072
:103C600000000000010203040607080970477047BE
:103C7000704700000246C80FC00781434B0030B5B3
:103C80004B405B009B0D20D01923DB06C918012394
:103C90001B05994220DB0324A40704251346AB40EF
:103CA0000BD3002B04D1EB0613409B00E34204D45A
:103CB00001246407002312195941FF231B0599426F
:103CC0000BD2C9000143500F09E0CB0204D50143D8
:103CD0000803024305D0054830BDFF21C90508434C
:103CE00030BD084607210905884330BD0000C07F6C
:103CF000F0B50C46871A9C410D46861A9D4103D2A9
:103D0000C01BA141D21963410D0D1F0DC94EEC1B03
:103D1000AE435CD07F057F0D0026002F51D02D05CE
:103D2000AC46A943DD020123ED0A1B051D432023F8
:103D30001B1B24D41746E740381871412F46E74033
:103D4000CC199D402818314661410C0D27D16144A2
:103D50009A4013D50023401C594152000ED140080F
:103D6000400001224B005205D34207D305204007F3
:103D7000C14201D5B04900E0B0493046F0BD6B000A
:103D8000002A00D001229A181F23203C1B1B01D5BA
:103D9000002302E0E540281871410C0DD7D0012422
:103DA00024050919C407CD0740084908E40F284332
:103DB0006144002CD5D00024401C61419A40D0D1F0
:103DC000CDE76A05520DD9D1C90FC907D5E79C4D7A
:103DD0004E00002801D0012400E0002434195F00C7
:103DE000002A01D0012600E00026BE19954FAC4202
:103DF0000CD8AE420AD8B44206D001256D05EC427B
:103E0000BCD010461946F0BD9942FCD0002039467E
:103E1000F0BDF0B51FB40C460F46811A9F412546F0
:103E2000861A9D4106D20125ED076F40401ABC411C
:103E300052187B41210D1E0D8D1BAC467D4D8D43CF
:103E40007ED075056D0D7CD00D05AE46AC431B03D1
:103E50001B0B794D52429D41202366469B1B14D378
:103E60001746F740381800260090744160462F46E8
:103E70000741E41900989D402818664116D4714600
:103E800071189A4025D5012320E093182A466A41EB
:103E90005200002B00D0521C1E23203E9B1B002BE7
:103EA00061DD3541EE1728186641E8D500187641E6
:103EB0005B1C9A4000D3401C4B05F3181524E340CB
:103EC00010D3002B52D071467118D30FC01802D3F3
:103ED000491C05B0F0BD0123DB079A42F9D1400827
:103EE0004000F6E701225205B21801D1002853D054
:103EF0000123CC0ADB029943891E002A08D1020C57
:103F000003D0020C0004103902E0024600202039E0
:103F10000023550B05D112020823550B01D1520184
:103F20000D23550C01D112011B1DD50C01D192009E
:103F30009B1C150D01D152005B1C2025EE1A01E0DF
:103F40002CE022E00546F54015439840CA1AE107E7
:103F500069181305C918002ABBDA0320400708189E
:103F6000C10FC9070FE071466118B2E7F1074008B9
:103F70000843711071444A000CD001235B059A423A
:103F8000A7D2C90FC9070020A3E74905490D26D1CB
:103F9000002001E00028F4D100219AE7284D6600B6
:103FA000002801D0012100E0002171185F00002AE3
:103FB00001D0012600E00026BE19224FA94210D8E8
:103FC000AE420ED8B14208D001256D05E94206D0B7
:103FD0001946A802414010467BE79C4201D0214689
:103FE00077E70020394674E710B50C465C4005D5EC
:103FF0000124E4076340FFF70CFF10BDFFF778FED4
:1040000010BD30B40C465C4004D50124E407634085
:1040100030BC6DE630BCFCE670B50124E4076140BD
:104020000D465D4002D4FFF763FE70BD6340FFF7AD
:10403000F0FE70BDFF0700000000F0FF0000F07F01
:104040000000E0FF0000F87FF0B5F94D0C091E09F3
:104050002C402E402F468BB0A7437DD0B543FCD0DB
:10406000002E7AD0002CFCD00D465D40ED0F25438C
:10407000AC1BFF25AD0464190894C502440DC902A8
:104080002143500DDC0204430120C00701430443D7
:10409000D2020191200C110C00958C46010423469C
:1040A0008B430A9161460904E24D8A430991010A52
:1040B0007D4449198039097805464D4301266D181C
:1040C000F605751B6943C90C640B891C4C436418C5
:1040D000B5012C1B250C2E04B4434C434D43210C3D
:1040E000691889090591009DE90701D00121C907D7
:1040F00004912C4601996708CD072F434C08059D74
:10410000E10B4D432D0C29466646754302950D463D
:1041100045432E46029D7D1BB44100950D465D43EF
:1041200001942C0C2F040D465543AE462D0C3D43F7
:10413000029503947546049C2D04641B049406D2D6
:10414000029C039D641C002675410395029401ACFA
:1041500070CC009F7D1B01E03EE162E1B4410904A7
:104160000095079101940599A4086143090C0C4638
:104170004443650BE7040C4666467443A646640B4D
:104180003C43039502947446049DE4042C1B049460
:1041900006D2029C039D641C00267541039502947F
:1041A00001AC70CC009F7D1BB44101940C465C4374
:1041B0000095650FE7000C465443A646640F3C4348
:1041C000039502947446049DE4002C1B049406D2CB
:1041D000029C039D641C002675410395029401AC6A
:1041E00070CC009F7D1BB441AE09AF06049DC90091
:1041F000AD092F43049DA406AD060495079D3443E5
:1042000069180791059DE10B4D432D0C2946664623
:10421000754302950D4645432E46029D7D1BB441D4
:1042200000950D465D4301942C0C2F040D4655431B
:10423000AE462D0C3D43029503947546049C2D0417
:10424000641B049406D2029C039D641C00267541E5
:104250000395029401AC70CC009F7D1BB441019486
:104260008C050694079C890A611800950791019CAA
:104270000599A4086143090C0D464543680BEF04FA
:104280000D46644665436C0B3C43049FED047D1B67
:10429000AC4602D20025641C6841009E019D371B7C
:1042A00085410846584301950C46460FC5005443C6
:1042B000600F28436546E4002C1B02D20025401CF9
:1042C0006E41019D3F1AB5412846BD09800628432D
:1042D0008446A009BF064E020699A4067618074335
:1042E000079D002068410A99079019430020099B07
:1042F00000906046FF1913434041E20F64003A43C7
:10430000A4460446D71A8C41A04203D9012000904C
:1043100020463A46C70F941840416246D20F2243C6
:10432000644664000494009CBE466400D71AA44608
:10433000044602978C417746002F01D1A04204D950
:104340006046401C8446029A2046C40FA646941834
:104350004041049A0546D20F224364466400D31AB2
:104360008D417146002901D1A84202D928461A463A
:10437000641C10430122002800D016436102002073
:10438000079B891904465C410223002C02DB491873
:1043900013466441089DCE0A2D145D194B0567052F
:1043A000E10A2C050D1908993E43C9076940002B05
:1043B00008D0934006D30022761C5141002B01D136
:1043C000760876001C4A002D43DB154241D0AA43F3
:1043D0003FD030460BB0F0BD06180D464D41174C8E
:1043E0007642AC411AD395181C465C41134A6D4283
:1043F000A24113D3012252054C00D4420AD15C00E1
:10440000D4420BD04B4002D592021143E2E749005F
:104410004908DFE75940C90FC90718E000200849DB
:10442000D8E7054801420DD10342F7D0F2E700007A
:104430000000FF07EC0E00000000F07F0000E0FF2E
:104440000000F87F114859400143C012414000204C
:10445000C0E70123089A9B069A4205DC0322520713
:104460008918C90FC907B5E7052252078918074AF5
:104470001143D2125140ADE770B515461C460246B5
:104480000B4628462146FFF7DFFD70BDFFFFFF7F8B
:1044900030B50346CA02400D1043164D164C0A159E
:1044A00002D02043002A06DBAA1A002A12DDD040DF
:1044B000FF2A0BDC30BD5205520D01D140004008EF
:1044C000AA1A07D4D0404042FF2A01DD002030BDA7
:1044D0000028FCDD4A00002B01D0012000E0002074
:1044E000101801225205D042F0D8C817C0436040CE
:1044F00030BD00001E040000000000801F22030CDD
:1045000002D10F22000402D0030E03D004E00020E9
:10451000014670470002083A030F01D10001121F43
:10452000830F01D18000921E002801DB4000521E43
:10453000120551184205C012411810467047C10FAC
:10454000C90700D04042012292071143D6E701215A
:104550008907D3E7F0B58B4C0F09254689B0BD43D9
:104560007BD01D092646AE43FAD00E465E4027405A
:10457000F60F3E43254071D024012142FBD0FF2499
:10458000AD19A4042D1B039501252D05DB02DB0AC3
:10459000C9022B43C90A29431E010901040F130F45
:1045A000050121431701880B820391432D098C4695
:1045B000A90B1E438A039543B30B9A0396433F0905
:1045C000BA0B9403A74302962E467E430497B64641
:1045D0004E19D7190C460196544305977E43371B55
:1045E0007646BF1B3601B646BE0B36190096764698
:1045F000BC043719009C01D3641C00946400002F94
:1046000001D001263443029E049F754366467E43D3
:104610000496760034196E0034190094029C019EB1
:104620001C196643751BAE46069465464519059CE4
:1046300005956C43594375460891691A0191049E8A
:1046400001465143A41B0491611A009C0791E106A5
:1046500005D061090122114302E072E06EE06109B8
:10466000089D00272C0A2D066918049D7C412A0A02
:104670002D066918019D6241AC0DAD026D185441C3
:10468000079A910D920255196141029A6446584366
:104690005443069B059A5A43121A131B9A0E9B0108
:1046A0005B187A41010B0005C3185141220A20060C
:1046B00044195A419A4200D2491C012040028142C9
:1046C00003D315230226F64302E014230326F64300
:1046D0002020C51AA9401746AF40DA400A432046B9
:1046E0000399D8400914731819055118039A3843CF
:1046F000D2075140AC4009D00122944006D3002299
:10470000401C5141002C01D1400840001E4A9342F8
:1047100012D3012203989206904207DB052040073E
:1047200009181A480143C012414004E00320400721
:104730000818C10FC907002009B0F0BD0020F1071B
:10474000FAE705180C464C4111486D42A04115D3BB
:1047500094181A465A410E48644290410ED30120E3
:104760004A004005824209D35A00824206D359408A
:10477000C90F084AC90700201143DDE70020064998
:10478000DAE700000000FF07FE070000FFFFFF7FE1
:104790000000E0FF0000F07F0000F87F0121C90564
:1047A0000123411842001B06D3185B0E0AD0C1102A
:1047B0000722D206891840075242D14201D5520041
:1047C00089187047090208D50146002A03D0C10F95
:1047D000C9070020704710467047420202D00020EF
:1047E00002497047072109050143F4E70000F87FFB
:1047F000F0B5FF252D04C609C209FF2704462E4047
:104800000137CB093E4348402A402B400746002A47
:104810006BD0002B69D0AA4267D0AB4265D000288C
:1048200000DA32460125ED0529432C430902200216
:10483000090AD21A4B0C7F24E31A434C000A7C4429
:10484000E35C7D242404121914145B00A21888422E
:1048500001D3521C00E0400049420C465C43241145
:104860005C43DB016415E318040A5C43C502200DB8
:104870000C4644436419250A5D432303EC0C0D46A2
:10488000654300030019EB184C42A34201D35B18A7
:10489000401CD4052018002B07D05B00C91804D396
:1048A000401C002901D1400840003F2189048A4270
:1048B00009D3002A08DC1106090F04D00321490797
:1048C0004018C00FC007F0BD012241001206891830
:1048D0007F2252069142F6D205214907C84201D5EE
:1048E0009010F0BDFF20C005F0BD002F00DA324669
:1048F0001648AA4207D2AB4205D21902090E17D0B8
:10490000F80FC007F0BDFF2563002D06AB42F9D8B4
:104910004900A942F6D8AB4201D1A942F2D0A9423E
:1049200001D1002101E061004908D0050843F0BD34
:104930001102090EFBD0FF200243D005F0BD0A464C
:104940000146104654E70000DE0700000000C07F6B
:1049500010B501469E240002CA15A307002A02D002
:104960001843002A04DBA21A002A0CDDD04010BD37
:104970001206120E01D140004008A21A03D4D04002
:1049800040420028F3DDFF2248001206904201D980
:10499000002010BDC817C043584010BD1F22030C93
:1049A00002D10F2200041CD0030E01D10002083AEC
:1049B000030F01D10001121F830F01D18000921E4D
:1049C000002801DB4000521ED20551180212511876
:1049D0001922904004D3491C002801D149084900FC
:1049E00008467047C10FC90700D040420122920714
:1049F0001143D3E701218907D0E70000F8B5264C21
:104A00004E00069DA6420AD8A64201D1002806D132
:104A10005E00A64203D8A6420AD1002A08D00D247F
:104A20002404254233D02946002000F090F8F8BD38
:104A30000C461C4311D4994207D0C81A02D3EFF395
:104A40000080F8BDEFF30080F8BD801A02D3EFF3C9
:104A50000080F8BDEFF30080F8BD09242407E500CD
:104A60008B4207D0581A02D3EFF3008006E0EFF331
:104A7000008007E0101A03D3EFF30080A04303E0A7
:104A8000EFF30080A043284380F30088F8BD009531
:104A900000F074F8F8BD00000000E0FF10B5FF233F
:104AA0001B0644009C421DD84C009C421AD8034669
:104AB000124A0B4307D4401A02D3EFF3008010BD13
:104AC000EFF3008010BD081A03D3EFF3008090438A
:104AD00005E0EFF3008001219043C907084380F30C
:104AE000008810BD0D231B041A4204D0114600207B
:104AF00000F02DF810BD00F04BF810BD0000009044
:104B0000754600F04DF8AE46050069465346C008AC
:104B1000C000854618B020B5FEF7DEFF60BCB64683
:104B200000260027C0C5C0C5C0C5C0C5C0C5C0C51A
:104B3000C0C5C0C5403D490849008D46704710B505
:104B40000446C046C0462046FBF70BFB10BDC8021A
:104B500012D54803400F002804D0C803C0430121E8
:104B600088407047EFF30080000100090321090726
:104B7000084380F3008870470020704710B500207C
:104B80000249029A00F010F810BD00000000F87F02
:104B900010B5024800F008F810BD00000000C07F0A
:104BA000004870471000002010B50C461107090F8F
:104BB000092904D00A290AD008290CD104E0114699
:104BC0000820FFF7C4FF06E0510606D501E05106B4
:104BD00001D50120C007214610BDD10607D501012E
:104BE0000909CC084907000E0006044309E0410FFB
:104BF00020024907000A0143200E00061D22D14170
:104C000001430846E7E7000001491820ABBEFEE774
:104C100026000200704710B500F036F8EFF3008070
:104C2000800001D4012010BD002010BD10B500F09F
:104C3000A3F8EFF30080800001D5012010BD002013
:104C400010BD10B500F098F8EFF300804000800F21
:104C5000012800D0002010BD10B500F0B7F8EFF328
:104C600000804000800F012801D0012010BD0020ED
:104C700010BD10B500F0AAF8EFF30080800001D459
:104C8000012010BD002010BD70B501252D050C00C0
:104C90001C4310D4EC4206D4AC420AD4994200D052
:104CA00070BD904270BDE94217D4EB4215D49942D1
:104CB00070BD894270BDEC4206D5AC42F9D58B423D
:104CC00000D070BD824270BD6D004C00EC4204D239
:104CD0005C00EC4201D28B4270BD034C30B4FFF754
:104CE0008DFE30BC70BD00BF1900160470B50125E3
:104CF000ED0704004C4020D4441A01D2001B0919CE
:104D0000C60D4B00F2B2FF2A29D01B0E2CD0000298
:104D10000C0228432C43D31ADC40051910D2280A70
:104D200002D3401C6D0611D0761EF6058019FF2AAD
:104D300000DA70BDC00DC00570BD694000F0CEF84E
:104D400001200543C541521C761CE8E764089C40DD
:104D5000C90161408900E7D10124A043E4E71B0EAB
:104D6000440200D0034870BD002AFCD1C00FC00728
:104D700070BD00BF0000C07F0123DB0502000A43B5
:104D80000DD4DA4203D49A4207D488427047D842FD
:104D900014D4D94212D48842704780427047DA4214
:104DA00003D59A42F9D5814270475B004200DA424E
:104DB00004D24A00DA4201D28142704710B5024A59
:104DC000FFF76CFE10BD00BF090013040123DB05D3
:104DD00002000A430DD4DA4203D49A4207D488422F
:104DE0007047D84214D4D94212D4884270478042C6
:104DF0007047DA4203D59A42F9D5814270475B0089
:104E00004200DA4204D24A00DA4201D281427047BB
:104E100010B5024AFFF742FE10BD00BF090016049C
:104E200070B5420064414B005C41120E39D01B0E3C
:104E300038D0FF2A3CD0FF2B3AD0D2187F3A40021C
:104E40004902400A490A4518ED0106004E43000A8E
:104E5000090A48430104731A4019190C4318990FA1
:104E600004D05B08012149075B1A521CD80904D3FE
:104E7000401CF50301D19D0607D0FF2A08D2D505B5
:104E800006D0E4072043401970BD0125A843F4E78C
:104E9000002A01DCE00770BD2402FF202043C0058A
:104EA00070BD1B0EFF2A03D0FF2B01D0E00770BDA1
:104EB000FF2636064500B54206D84D00B54203D858
:104EC000D218FF2A00D0E7E7004870BD0000C07F7D
:104ED00070B50125ED0704004C4022D4441A02D2DB
:104EE0006C40001B0919C60D4B00F2B2FF2A4BD0D3
:104EF0001B0E50D000020C02A8432C43D31ADC40F6
:104F0000051B05D5AD0019D36D08761E521E37D08E
:104F1000F605280A01D2801970BD70416D0603D0D4
:104F200070BD6940FFF7E8FE9C40090261404900FE
:104F300001D0401E70BD0124A04370BD6D081DD07E
:104F400001202B0C01D12D0410302B0E01D12D028C
:104F500008302B0F01D12D01001DAB0F01D1AD0089
:104F6000801CEB0F01D16D00401C361A121A6D0027
:104F7000680AF5054019012A02DB70BD002070BDEA
:104F8000C036300AC00770BD1B0E440201D1FF2B92
:104F900000D1024870BD002AF0D070BD0000C07F73
:104FA00080807F7E7D7C7B7A797877767675747366
:104FB000727171706F6E6E6D6C6C6B6A6A69686825
:104FC000676666656464636362616160605F5F5EBB
:104FD0005E5D5D5C5C5B5B5A5A5959585857575631
:104FE0005655555554545353525252515150505096
:104FF0004F4F4F4E4E4D4D4D4C4C4C4B4B4B4A4AE8
:105000004A4949494848484747474746464645452B
:105010004544444444434343434242424241414164
:105020008182838485868788898B8C8D8E8F9192EF
:1050300093959697999A9C9D9FA0A2A3A5A7A8AA8D
:10504000ACAEB0B2B3B5B7B9BCBEC0C2C5C7C9CCAF
:10505000CED1D4D7D9DCDFE2E6E9ECF0F3F7FAFE03
:105060000000FFFFFEFF000002000100110A120A0B
:10507000130A110A110A160A0000000001020304B3
:105080000003050401020600000080BF82EC6FBF30
:105090004FD160BF6E9652BFE02645BF267038BF25
:1050A000EB612CBFAFED20BF8A0616BFF6A00BBF89
:1050B0009EB201BF7264F0BED02EDEBE32B5CCBE51
:1050C000E2E9BBBE68C0ABBE6A2D9CBE8B268DBE1E
:1050D0009C447DBE043061BE52FF45BECFA32BBEB3
:1050E000E70F12BE1E6EF2BD521BC2BDDB1193BD97
:1050F000617B4ABDB430E2BCD9BECEBB639A6D3C85
:1051000067C10E3D0A55603D211E983D1848BF3DC0
:1051100041B4E53DE4B6053E9C3F183E47792A3E42
:10512000A1683C3E29124E3E257A5F3EA7A4703E00
:10513000C9CA803E4F28893EAE6C913E9A99993EED
:10514000B7B0A13E9CB3A93ECEA3B13EC982B93E41
:10515000F951C13EC212C93E7FC6D03E816ED83ED3
:10516000130CE03E76A0E73EE82CEF3EA2B2F63EFE
:10517000D832FE3E5CD7023FBA93063F194F0A3F32
:10518000110A0E3F35C5113F1C81153F593E193F8D
:1051900085FD1C3F36BF203F0684243F904C283FAE
:1051A00071192C3F4AEB2F3FBEC2333F75A0373FEA
:1051B0001A853B3F5C713F3FF065433F9263473F39
:1051C000016B4B3F067D4F3F709A533F15C4573FCD
:1051D000D6FA5B3F9D3F603F5D93643F17F7683FA2
:1051E000D86B6D3FB8F2713FE08C763F8A3B7B3FD6
:1051F0000000803FCF6D823FECE7843F1A6F873F0E
:105200002B048A3FFDA78C3F7C5B8F3FA51F923FFD
:1052100088F5943F47DE973F18DB9A3F4BED9D3F63
:105220004816A13F9557A43FD6B2A73FD429AB3F1C
:105230007DBEAE3FEC72B23F6A49B63F7744BA3F9B
:10524000D066BE3F76B3C23FB52DC73F30D9CB3F06
:10525000ECB9D03F5DD4D53F772DDB3FBDCAE03FF1
:105260005AB2E63F38EBEC3F207DF33FDE70FA3F69
:1052700037E8004094D30440090109400D780D40FF
:1052800043411240B166174010F41C4029F72240F8
:105290004D802940F5A230408D7638408517414039
:1052A000B7A84A4055555540965361406CE86E404A
:1052B000ED6C7E401E2B8840C4A0924061039F404D
:1052C00076EBAD40A037C040253AD740420FF540BD
:1052D00030A70E41C14E2B4184695741B011924114
:1052E000148AE54122E98942907E1EC384DE10C201
:1052F000EBD4A1C14DCE5EC179D028C12A2A07C105
:10530000C957E0C04EE9BEC0467FA5C0A68391C084
:10531000786181C0382668C00CD051C084C93EC0B5
:10532000C5602EC0731220C06D7B13C07C4F08C0B7
:1053300024A6FCBFF1ADEABF886ADABF539ECBBF9B
:10534000C316BEBFF9A9B1BFF834A6BF4A9A9BBF26
:10535000F3C091BFA09388BF000080BF80530008B6
:105360000000002010000000100100089053000809
:1053700010000020200900002C010008000000009F
:1053800000A24A0400002042D007E80320000000E9
:04000005080000CD22
:00000001FF
